:100000000C9447000C9400000C9400000C94000029
:100010000C9400000C9400000C9400000C94000060
:100020000C9400000C9400000C9400000C94000050
:100030000C9400000C9400000C9400000C94000040
:100040000C9400000C9400000C9476000C940000BA
:100050000C9400000C9400000C9400000C94000020
:100060000C9400000C9400000C9400000C94000010
:100070000C9400000C9400000C94000000000000A0
:100080000001000000000A0003007C000000F8945A
:10009000EE27EFBBF1E0F5BFE5BF8DE0A2E0BB27A7
:1000A000ED938A95E9F780E094E0A0E0B1E0ED936C
:1000B0000197E9F7E6E8F0E085919591009761F006
:1000C000A591B59105901590BF01F00105900D9295
:1000D0000197E1F7FB01F0CFE0E0EEBBEFEFEDBF02
:1000E000E4E0EEBFC0E0D2E00C94C4010A921A92A0
:1000F0009A93AA93BA93EA93FA93EFB7EA93E3E653
:10010000E6BD3394A32DBB27E9E1F0E005D230979B
:1001100011F463943324A62DA8D111F453946624CA
:10012000A52DA3D111F483945524E82DF0E0E050DF
:10013000FE4F4082A82DBB27E8E1F0E0EDD13097DB
:1001400011F4E1E08E2EE991EFBFF991E991B991B7
:10015000A99199911990099018951A93E6B1EF73A6
:100160001E2F110F110FE12FA2E0B6D11E2FC9C013
:100170001A93F3DF1E2F113011F45C9A0CC0123069
:1001800019F45C985B9A08C0143021F45C985B9871
:100190005A9A03C05C985B985A98B3C01A931A2F66
:1001A000BB27EAE0F0E0B8D1EE2EA12FB0E0EAE004
:1001B000F0E0ADD1DF01EAE0F0E0AED1DE2EEE20DE
:1001C00029F4109858D11598169A47C0E1E0EE1519
:1001D00021F456D1159A169A40C0E2E0EE1539F492
:1001E00010981198129A13981498159A35C0E3E054
:1001F000EE1521F4109A3FD1159A2EC0E4E0EE15C9
:1002000011F43ED128C0E5E0EE1529F4109A1198BA
:100210001298139A1FC0E6E0EE1529F41098119871
:100220001298139A17C0E7E0EE1541F4109A119A4C
:10023000129813981498159A169A0FC0E8E0EE15C4
:1002400011F4109804C0E9E0EE1539F4109A1198F1
:1002500012981398149815981698DD2029F4179879
:1002600015D12B982C9A4DC0E1E0ED1521F413D156
:100270002B9A2C9A46C0E2E0ED1539F417985F9856
:10028000289A29982A982B9A3BC0E3E0ED1521F48F
:10029000179AFCD02B9A34C0E4E0ED1511F4FBD092
:1002A0002EC0E5E0ED1529F4179A5F982898299A51
:1002B00025C0E6E0ED1529F417985F982898299A4B
:1002C0001DC0E7E0ED1541F4179A5F9A2898299828
:1002D0002A982B9A2C9A15C0E8E0ED1541F4179A4C
:1002E0005F9A289A299A2A9A2B9A2C9A0AC0E9E0AE
:1002F000ED1539F4179A5F98289829982A982B9821
:100300002C9819910895DAD0AA20F1F410E0E8E0D1
:10031000E81550F4E82DE8500E2F302F831618F012
:10032000C0D03F5FFBCF0DC0E8E0C2D0393118F438
:10033000B8D03F5FFBCF31E0831618F0B2D03F5FFB
:10034000FBCFE12F7E2E1DC010E0E4E0E81550F455
:10035000E82DE4500E2F302F831618F0A2D03F5F07
:10036000FBCF0DC0E4E0A4D0393118F49AD03F5F40
:10037000FBCF31E0831618F094D03F5FFBCFE12F25
:100380007E2EA1D024960895E0E8E0936100E0E09D
:10039000E0936100EFEFE1B9E2B9EFE1E4B9E5B96B
:1003A000E0E0E7B9EFEFE8B9ECE9EAB9EBB9E0E092
:1003B000E4BDE5E0E5BDECE3E6BDE0E0E7BDE8BDBA
:1003C000E0938000E0938100E0938500E093840057
:1003D000E0938700E0938600E0938900E093880033
:1003E000E0938B00E0938A00E093B600E093B000C6
:1003F000E093B100E093B200E093B300E093B40067
:10040000E1E0E0936E00E0E0E0936F00E0937000C5
:10041000E0936900EDBBE0936800E093C100E093D6
:10042000C900E0E8E0BFE0E0E0937B00E0937F00FC
:10043000E0937A00ECBDE093BC007894E0E0309962
:10044000E1E09E2EFBCF94DEE1E0E91541F4CC24FF
:10045000992029F0E1E0EB1509F4C394F9CF4C2C75
:1004600052DFAE2F9BDEEFCFFFCFBB27ECE3F0E0F8
:1004700053D03097089511981298139814980895AE
:10048000109A119A12981398149A08955F982898C0
:1004900029982A980895179A5F9A289829982A9A4D
:1004A0000895E32FF0E0E050FE4FE0811E0F089525
:1004B000E8190E2FE8E1E01B3E2F08953A932A93A6
:1004C0001A930A9308953B812A811981088108951E
:1004D000F195E195F0400895EE230E2EEA2F19F0E4
:1004E000E6950A94E9F708950024112490E1AA0FF3
:1004F000BB1F001C111C0E1A1F0A18F40E0E1F1E23
:1005000001C0A1609A9599F7FD01D001089512D01C
:10051000EBDF0EF4DDDF0895E894B7FF04C0B1957A
:10052000A195B0406894F7FDD3DFDEDFFD010EF446
:10053000CFDF0895E894F7FF02C0CADF6894B7FFE1
:1005400006C0B195A195B04000F8039400FA089553
:00000001FF
