:0E0000000C9447000C9400000C9400000C942B
:10000E0000000C9400000C9400000C9400000C9462
:10001E0000000C9400000C9400000C9400000C9452
:10002E0000000C9400000C9400000C9400000C9442
:10003E0000000C9400000C9400000C9476000C94BC
:10004E0000000C9400000C9400000C9400000C9422
:10005E0000000C9400000C9400000C9400000C9412
:10006E0000000C9400000C9400000C9400000000A2
:10007E0000000000000000000A0003007C000000E9
:10008E00F894EE27EFBBF1E0F5BFE5BF8DE0A2E0FF
:10009E00BB27ED938A95E9F780E094E0A0E0B1E00C
:1000AE00ED930197E9F7E6E8F0E0859195910097D9
:1000BE0061F0A591B59105901590BF01F0010590E5
:1000CE000D920197E1F7FB01F0CFE0E0EEBBEFEF11
:1000DE00EDBFE4E0EEBFC0E0D2E00C94A4010A92C2
:1000EE001A929A93AA93BA93EA93FA93EFB7EA9372
:1000FE00E3E6E6BD4394A42DBB27E9E1F0E0CCD1C5
:10010E00309711F433944424A32D89D111F46394C0
:10011E003324A62D84D111F453946624A52DBB2728
:10012E00E8E1F0E0B9D1309759F49924CC24E8E114
:10013E00CE1628F4EC2D79D19E0EC394F8CF55240B
:10014E00E991EFBFF991E991B991A991999119901E
:10015E0009901895329B02C05C9A0CC0339B03C069
:10016E005C985B9A08C0349B04C05C985B985A9A62
:10017E0003C05C985B985A9808951A931A2FBB2760
:10018E00EAE0F0E089D1BE2EA12FB0E0EAE0F0E087
:10019E007ED1DF01EAE0F0E07FD1EE2EBB2029F424
:1001AE00109848D11598169A47C0E1E0EB1521F446
:1001BE0046D1159A169A40C0E2E0EB1539F4109824
:1001CE001198129A13981498159A35C0E3E0EB150E
:1001DE0021F4109A2FD1159A2EC0E4E0EB1511F4EC
:1001EE002ED128C0E5E0EB1529F4109A119812983B
:1001FE00139A1FC0E6E0EB1529F410981198129887
:10020E00139A17C0E7E0EB1541F4109A119A129861
:10021E0013981498159A169A0FC0E8E0EB1511F47E
:10022E00109804C0E9E0EB1539F4109A1198129861
:10023E001398149815981698EE2029F4179805D14E
:10024E002B982C9A4DC0E1E0EE1521F403D12B9A98
:10025E002C9A46C0E2E0EE1539F417985F98289A6A
:10026E0029982A982B9A3BC0E3E0EE1521F4179AB1
:10027E00ECD02B9A34C0E4E0EE1511F4EBD02EC086
:10028E00E5E0EE1529F4179A5F982898299A25C06B
:10029E00E6E0EE1529F417985F982898299A1DC064
:1002AE00E7E0EE1541F4179A5F9A289829982A9854
:1002BE002B9A2C9A15C0E8E0EE1541F4179A5F9A26
:1002CE00289A299A2A9A2B9A2C9A0AC0E9E0EE15B6
:1002DE0039F4179A5F98289829982A982B982C9871
:1002EE00199108951A930A9310E04D9920C010E0C9
:1002FE009920D9F4E8E15E1678F400E0E52DF0E0FF
:10030E003196A02FB0E0AE17BF072CF4E02F8DD0A2
:10031E001E0F0F5FF3CF08C000E0051528F4E02F85
:10032E0084D01E0F0F5FF9CF01C0192D01C01A2DF9
:10033E00E12F8E2E099119910895E0E8E093610066
:10034E00E0E0E0936100EFEFE1B9E2B9EFE1E4B98B
:10035E00E5B9E0E0E7B9EFEFE8B9ECE9EAB9EBB9F6
:10036E00E0E0E4BDE5E0E5BDECE3E6BDE0E0E7BDE1
:10037E00E8BDE0938000E0938100E0938500E09378
:10038E008400E0938700E0938600E0938900E09379
:10039E008800E0938B00E0938A00E093B600E09330
:1003AE00B000E093B100E093B200E093B300E093AD
:1003BE00B400E1E0E0936E00E0E0E0936F00E093C4
:1003CE007000E0936900EDBBE0936800E093C1001C
:1003DE00E093C900E0E8E0BFE0E0E0937B00E0934B
:1003EE007F00E0937A00ECBDE093BC0078944E9AC7
:1003FE00B1DE309B06C07724309B03C031997394D5
:10040E00FBCFA70CA52DB0E0A050BE4FE52D0DD013
:10041E00E70DEC9367DFAE2FB0DEEACFFFCFBB2741
:10042E00ECE3F0E039D030970895F0E0E050FE4F65
:10043E00E081089511981298139814980895109ABF
:10044E00119A12981398149A08955F9828982998DB
:10045E002A980895179A5F9A289829982A9A0895A3
:10046E00F195E195F04008950024112490E1AA0F32
:10047E00BB1F001C111C0E1A1F0A18F40E0E1F1E95
:10048E0001C0A1609A9599F7FD01D001089512D08F
:10049E00EBDF0EF4E5DF0895E894B7FF04C0B195E5
:1004AE00A195B0406894F7FDDBDFDEDFFD010EF4B1
:1004BE00D7DF0895E894F7FF02C0D2DF6894B7FF44
:1004CE0006C0B195A195B04000F8039400FA0895C6
:00000001FF
