:060000000C9448000C9472
:1000060000000C9400000C9400000C9400000C946A
:1000160000000C9400000C9400000C9400000C945A
:1000260000000C9400000C9400000C9400000C944A
:1000360000000C9400000C9400000C9400000C943A
:1000460000000C9477000C9400000C9400000C94B3
:1000560000000C9400000C9400000C9400000C941A
:1000660000000C9400000C9400000C9400000C940A
:1000760000000C94000000000000000000000000DA
:1000860000000C0003007C000000F894EE27EFBB94
:10009600F1E0F5BFE5BF8DE0A2E0BB27ED938A95C1
:1000A600E9F780E094E0A0E0B1E0ED930197E9F78D
:1000B600E8E8F0E085919591009761F0A591B591FA
:1000C60005901590BF01F00105900D920197E1F79B
:1000D600FB01F0CFE0E0EEBBEFEFEDBFE4E0EEBFFB
:1000E600C0E0D2E00C942C020A921A929A93AA9338
:1000F600BA93EA93FA93EFB7EA93E3E6E6BD43943D
:100106004E98A42DBB27E4E6F0E066D2309719F4AA
:10011600339444244E9AA32D11D211F463943324BC
:10012600A62D0CD211F453946624A52DBB27E8E125
:10013600F0E052D2309759F49924CC24E8E1CE1657
:1001460028F4EC2D01D29E0EC394F8CF5524E991E4
:10015600EFBFF991E991B991A991999119900990F7
:100166001895329B02C0339B01C002C05C9A12C034
:10017600339B02C0329B01C003C05C985B9A0BC0E4
:10018600339B02C0329901C004C05C985B985A9AAE
:1001960003C05C985B985A9808951A931A2FBB2748
:1001A600EAE0F0E019D2BE2EA12FB0E0EAE0F0E0DE
:1001B600D0D1E0931802A12FB0E0E4E6F0E0C9D177
:1001C600E0931902BB2029F41098C9D11598169A04
:1001D60047C0E1E0EB1521F4C7D1159A169A40C045
:1001E600E2E0EB1539F410981198129A13981498C6
:1001F600159A35C0E3E0EB1521F4109AB0D1159AA3
:100206002EC0E4E0EB1511F4AFD128C0E5E0EB1504
:1002160029F4109A11981298139A1FC0E6E0EB156C
:1002260029F4109811981298139A17C0E7E0EB1565
:1002360041F4109A119A129813981498159A169ACE
:100246000FC0E8E0EB1511F4109804C0E9E0EB15D7
:1002560039F4109A119812981398149815981698BC
:10026600E0911802E03029F4179884D12B982C9A43
:1002760056C0A0911802A13021F481D12B9A2C9A54
:100286004EC0A0911802A23039F417985F98289AA8
:1002960029982A982B9A42C0A0911802A33021F4DB
:1002A600179A68D12B9A3AC0A0911802A43011F47B
:1002B60066D133C0A0911802A53029F4179A5F9829
:1002C6002898299A29C0A0911802A63029F41798CF
:1002D6005F982898299A20C0A0911802A73041F467
:1002E600179A5F9A289829982A982B9A2C9A17C0B9
:1002F600A0911802A83041F4179A5F9A289A299A71
:100306002A9A2B9A2C9A0BC0A0911802A93039F47C
:10031600179A5F98289829982A982B982C98E091F4
:100326001902E03029F42D9830D14698479A56C0E4
:10033600A0911902A13021F42DD1469A479A4EC0B8
:10034600A0911902A23039F42D982E982F9A589818
:100356005998469A42C0A0911902A33021F42D9AC9
:1003660014D1469A3AC0A0911902A43011F412D1C0
:1003760033C0A0911902A53029F42D9A2E982F98F2
:10038600589A29C0A0911902A63029F42D982E98C2
:100396002F98589A20C0A0911902A73041F42D9A9F
:1003A6002E9A2F9858985998469A479A17C0A0910E
:1003B6001902A83041F42D9A2E9A2F9A589A599AD2
:1003C600469A479A0BC0A0911902A93039F42D9A82
:1003D6002E982F98589859984698479819910895A5
:1003E6001A930A9310E04D9921C010E09920E1F488
:1003F600E8E15E1678F400E0E52DF0E03196A02FF6
:10040600B0E0AE17BF072CF4E02F9ED01E0F0F5F93
:10041600F3CF08C000E0051528F4E02F95D01E0F95
:100426000F5FF9CF812E01C0892C01C08A2CE82DDF
:100436000DC01A930A938D01D016E10639F0002EED
:10044600012A09F401C07394D02EE12E0991199165
:100456000895E0E8E0936100E0E0E0936100EFEFEB
:10046600E1B9E2B9E4B9E5B9E0ECE7B9EFEFE8B92B
:10047600EFEDEAB9EBB9E0E0E4BDE5E0E5BDECE3BC
:10048600E6BDE0E0E7BDE8BDE0938000E0938100D3
:10049600E0938500E0938400E0938700E093860074
:1004A600E0938900E0938800E0938B00E0938A0054
:1004B600E093B600E093B000E093B100E093B200A1
:1004C600E093B300E093B400E1E0E0936E00E0E077
:1004D600E0936F00E0937000E0936900EDBBE0935A
:1004E6006800E093C100E093C900E0E8E0BFE0E007
:1004F600E0937B00E0937F00E0937A00ECBDE0930D
:10050600BC0078942EDE309B0AC07724309B07C04F
:10051600E0E03199E1E0F0E0DF018BDFF7CFA70CF7
:10052600A52DB0E0A050BE4FE52D0ED0E70DEC9303
:10053600772456DFAE2F31DEE5CFFFCFBB27ECE3C6
:10054600F0E04AD030970895F0E0E050FE4FE081A9
:1005560008953DD0DF01EAE0F0E03ED0089511981D
:100566001298139814980895109A119A129813983D
:10057600149A08955F98289829982A980895179AA2
:100586005F9A289829982A9A08952E982F9858980D
:10059600599808952D9A2E9A2F985898599A0895F1
:1005A600F195E195F04008950024112490E1AA0FF9
:1005B600BB1F001C111C0E1A1F0A18F40E0E1F1E5C
:1005C60001C0A1609A9599F7FD01D001089512D056
:1005D600EBDF0EF4E5DF0895E894B7FF04C0B195AC
:1005E600A195B0406894F7FDDBDFDEDFFD010EF478
:1005F600D7DF0895E894F7FF02C0D2DF6894B7FF0B
:1006060006C0B195A195B04000F8039400FA08958C
:00000001FF
