:100000000C9447000C9400000C9400000C94000029
:100010000C9400000C9400000C9400000C94000060
:100020000C9400000C9400000C9400000C94000050
:100030000C9400000C9400000C9400000C94000040
:100040000C9400000C9400000C9476000C940000BA
:100050000C9400000C9400000C9400000C94000020
:100060000C9400000C9400000C9400000C94000010
:100070000C9400000C9400000C94000000000000A0
:100080000000000000000A0003007C000000F8945B
:10009000EE27EFBBF1E0F5BFE5BF8DE0A2E0BB27A7
:1000A000ED938A95E9F780E094E0A0E0B1E0ED936C
:1000B0000197E9F7E6E8F0E085919591009761F006
:1000C000A591B59105901590BF01F00105900D9295
:1000D0000197E1F7FB01F0CFE0E0EEBBEFEFEDBF02
:1000E000E4E0EEBFC0E0D2E00C94A4010A921A92C0
:1000F0009A93AA93BA93EA93FA93EFB7EA93E3E653
:10010000E6BD4394A42DBB27E4E6F0E0CDD13097C3
:1001100011F433944424A32D8AD111F4639433242D
:10012000A62D85D111F453946624A52DBB27E8E1B3
:10013000F0E0BAD1309759F49924CC24E8E1CE16F6
:1001400028F4EC2D7AD19E0EC394F8CF5524E99172
:10015000EFBFF991E991B991A991999119900990FD
:100160001895329B02C05C9A0CC0339B03C05C980C
:100170005B9A08C0349B04C05C985B985A9A03C091
:100180005C985B985A9808951A931A2FBB27EAE057
:10019000F0E08AD1BE2EA12FB0E0EAE0F0E07FD1FE
:1001A000DF01EAE0F0E080D1EE2EBB2029F41098C8
:1001B00049D11598169A47C0E1E0EB1521F447D1D3
:1001C000159A169A40C0E2E0EB1539F41098119890
:1001D000129A13981498159A35C0E3E0EB1521F4A0
:1001E000109A30D1159A2EC0E4E0EB1511F42FD1FE
:1001F00028C0E5E0EB1529F4109A11981298139A8B
:100200001FC0E6E0EB1529F4109811981298139A84
:1002100017C0E7E0EB1541F4109A119A1298139861
:100220001498159A169A0FC0E8E0EB1511F410987F
:1002300004C0E9E0EB1539F4109A1198129813985C
:10024000149815981698EE2029F4179806D12B9833
:100250002C9A4DC0E1E0EE1521F404D12B9A2C9A92
:1002600046C0E2E0EE1539F417985F98289A29986D
:100270002A982B9A3BC0E3E0EE1521F4179AEDD0B3
:100280002B9A34C0E4E0EE1511F4ECD02EC0E5E07A
:10029000EE1529F4179A5F982898299A25C0E6E068
:1002A000EE1529F417985F982898299A1DC0E7E061
:1002B000EE1541F4179A5F9A289829982A982B9A54
:1002C0002C9A15C0E8E0EE1541F4179A5F9A289A27
:1002D000299A2A9A2B9A2C9A0AC0E9E0EE1539F449
:1002E000179A5F98289829982A982B982C981991F2
:1002F00008951A930A9310E04D9921C010E09920B7
:10030000E1F4E8E15E1678F400E0E52DF0E03196E6
:10031000A02FB0E0AE17BF072CF4E02F8ED01E0F39
:100320000F5FF3CF08C000E0051528F4E02F85D05B
:100330001E0F0F5FF9CF812E01C0892C01C08A2CBE
:10034000E82D099119910895E0E8E0936100E0E05B
:10035000E0936100EFEFE1B9E2B9EFE1E4B9E5B9AB
:10036000E0E0E7B9EFEFE8B9ECEDEAB9EBB9E0E0CE
:10037000E4BDE5E0E5BDECE3E6BDE0E0E7BDE8BDFA
:10038000E0938000E0938100E0938500E093840097
:10039000E0938700E0938600E0938900E093880073
:1003A000E0938B00E0938A00E093B600E093B00006
:1003B000E093B100E093B200E093B300E093B400A7
:1003C000E1E0E0936E00E0E0E0936F00E093700006
:1003D000E0936900EDBBE0936800E093C100E09317
:1003E000C900E0E8E0BFE0E0E0937B00E0937F003D
:1003F000E0937A00ECBDE093BC0078944E98B1DEB7
:10040000309B06C07724309B03C031997394FBCF97
:10041000A70CA52DB0E0A050BE4FE52D0ED0E70DE6
:10042000EC93772466DFAE2FAFDEE8CFFFCFBB279C
:10043000ECE3F0E039D030970895F0E0E050FE4F63
:10044000E081089511981298139814980895109ABD
:10045000119A12981398149A08955F9828982998D9
:100460002A980895179A5F9A289829982A9A0895A1
:10047000F195E195F04008950024112490E1AA0F30
:10048000BB1F001C111C0E1A1F0A18F40E0E1F1E93
:1004900001C0A1609A9599F7FD01D001089512D08D
:1004A000EBDF0EF4E5DF0895E894B7FF04C0B195E3
:1004B000A195B0406894F7FDDBDFDEDFFD010EF4AF
:1004C000D7DF0895E894F7FF02C0D2DF6894B7FF42
:1004D00006C0B195A195B04000F8039400FA0895C4
:00000001FF
