:0E0000000C9445000C9400000C9400000C942D
:10000E0000000C9400000C9400000C9400000C9462
:10001E0000000C9400000C9400000C9400000C9452
:10002E0000000C9400000C9400000C9400000C9442
:10003E0000000C9400000C9400000C9474000C94BE
:10004E0000000C9400000C9400000C9400000C9422
:10005E0000000C9400000C9400000C9400000C9412
:10006E0000000C9400000C9400000C9400000000A2
:10007E0001000000050003007C000000F894EE274C
:10008E00EFBBF1E0F5BFE5BF8DE0A2E0BB27ED933E
:10009E008A95E9F780E094E0A0E0B1E0ED93019756
:1000AE00E9F7E2E8F0E085919591009761F0A5916E
:1000BE00B59105901590BF01F00105900D92019735
:1000CE00E1F7FB01F0CFE0E0EEBBEFEFEDBFE4E0D8
:1000DE00EEBFC0E0D2E00C94AF010A921A929A934E
:1000EE00AA93BA93EA93FA93EFB7EA93E3E6E6BDDF
:1000FE004394A42DBB27E9E1F0E0E6D1309711F44B
:10010E0033944424A32D91D111F463943324A62D5A
:10011E008CD111F453946624A52DBB27E8E1F0E0B1
:10012E00D3D1309711F4E1E05E2EE991EFBFF99152
:10013E00E991B991A9919991199009901895329BCD
:10014E0002C05C9A0CC0339B03C05C985B9A08C0DB
:10015E00349B04C05C985B985A9A03C05C985B9879
:10016E005A9808951A931A2FBB27EAE0F0E0ACD103
:10017E00AE2EA12FB0E0EAE0F0E0A1D1DF01EAE07F
:10018E00F0E0A2D19E2EAA2029F4109854D11598F1
:10019E00169A47C0E1E0EA1521F452D1159A169A43
:1001AE0040C0E2E0EA1539F410981198129A1398AB
:1001BE001498159A35C0E3E0EA1521F4109A3BD154
:1001CE00159A2EC0E4E0EA1511F43AD128C0E5E004
:1001DE00EA1529F4109A11981298139A1FC0E6E0A6
:1001EE00EA1529F4109811981298139A17C0E7E09F
:1001FE00EA1541F4109A119A129813981498159AB8
:10020E00169A0FC0E8E0EA1511F4109804C0E9E060
:10021E00EA1539F4109A11981298139814981598A3
:10022E001698992029F4179811D12B982C9A4DC015
:10023E00E1E0E91521F40FD12B9A2C9A46C0E2E0A9
:10024E00E91539F417985F98289A29982A982B9AC5
:10025E003BC0E3E0E91521F4179AF8D02B9A34C08D
:10026E00E4E0E91511F4F7D02EC0E5E0E91529F424
:10027E00179A5F982898299A25C0E6E0E91529F47F
:10028E0017985F982898299A1DC0E7E0E91541F460
:10029E00179A5F9A289829982A982B9A2C9A15C003
:1002AE00E8E0E91541F4179A5F9A289A299A2A9A52
:1002BE002B9A2C9A0AC0E9E0E91539F4179A5F983F
:1002CE00289829982A982B982C9819910895D6D069
:1002DE004D991EC010E0E8E0E51550F4E52DE8500C
:1002EE000E2F302F531618F0BCD03F5FFBCF0DC032
:1002FE00E8E0BED0393118F4B4D03F5FFBCF31E027
:10030E00531618F0AED03F5FFBCFE12F8E2E1DC0DF
:10031E0010E0E4E0E51550F4E52DE4500E2F302FFB
:10032E00531618F09ED03F5FFBCF0DC0E4E0A0D077
:10033E00393118F496D03F5FFBCF31E0531618F0E9
:10034E0090D03F5FFBCFE12F8E2E9DD02496089547
:10035E00E0E8E0936100E0E0E0936100EFEFE1B9E7
:10036E00E2B9EFE1E4B9E5B9E0E0E7B9EFEFE8B9FA
:10037E00ECE9EAB9EBB9E0E0E4BDE5E0E5BDECE3BC
:10038E00E6BDE0E0E7BDE8BDE0938000E0938100CC
:10039E00E0938500E0938400E0938700E09386006D
:1003AE00E0938900E0938800E0938B00E0938A004D
:1003BE00E093B600E093B000E093B100E093B2009A
:1003CE00E093B300E093B400E1E0E0936E00E0E070
:1003DE00E0936F00E0937000E0936900EDBBE09353
:1003EE006800E093C100E093C900E0E8E0BFE0E000
:1003FE00E0937B00E0937F00E0937A00ECBDE09306
:10040E00BC0078949CDE309B06C07724309B03C0E2
:10041E0031997394FBCFE52DF0E0E050FE4F7082E2
:10042E0056DFAE2F9FDEEECFFFCFBB27ECE3F0E023
:10043E004BD03097089511981298139814980895E8
:10044E00109A119A12981398149A08955F982898F2
:10045E0029982A980895179A5F9A289829982A9A7F
:10046E000895E32FF0E0E050FE4FE0811E0F089557
:10047E00E5190E2FE8E1E01B3E2F08953A932A93DB
:10048E001A930A9308953B812A8119810881089550
:10049E00F195E195F04008950024112490E1AA0F02
:1004AE00BB1F001C111C0E1A1F0A18F40E0E1F1E65
:1004BE0001C0A1609A9599F7FD01D001089512D05F
:1004CE00EBDF0EF4E5DF0895E894B7FF04C0B195B5
:1004DE00A195B0406894F7FDDBDFDEDFFD010EF481
:1004EE00D7DF0895E894F7FF02C0D2DF6894B7FF14
:1004FE0006C0B195A195B04000F8039400FA089596
:00000001FF
