:020000000C945E
:1000020044000C9400000C9400000C9400000C942A
:1000120000000C9400000C9400000C9400000C945E
:1000220000000C9400000C9400000C9400000C944E
:1000320000000C9400000C9400000C9400000C943E
:1000420000000C9400000C9473000C9400000C94BB
:1000520000000C9400000C9400000C9400000C941E
:1000620000000C9400000C9400000C9400000C940E
:1000720000000C9400000C9400000000000004003A
:1000820003007C000000F894EE27EFBBF1E0F5BF1F
:10009200E5BF8DE0A2E0BB27ED938A95E9F780E00A
:1000A20094E0A0E0B1E0ED930197E9F7E0E8F0E039
:1000B20085919591009761F0A591B5910590159064
:1000C200BF01F00105900D920197E1F7FB01F0CF1E
:1000D200E0E0EEBBEFEFEDBFE4E0EEBFC0E0D2E068
:1000E2000C94A4000A921A929A93AA93BA93EA934E
:1000F200FA93EFB7EA93ECE3E6BD4394A42DBB2752
:10010200E2E3F0E097D0309711F433944424A32D26
:1001120074D011F463943324A62D6FD011F4539448
:100122006624A52DBB27E7E1F0E084D0309709F4DF
:100132005524E991EFBFF991E991B991A99199916A
:10014200199009901895E0E8E0936100E0E0E093EF
:100152006100E1B9E2B9EFEFE4B9E5B9E0E0E7B98E
:10016200E8B9EAB9EDEEEBB9E0E0E4BDE5E0E5BD02
:10017200ECE3E6BDE0E0E7BDE8BDE0938000E0939C
:100182008100E0938500E0938400E0938700E09390
:100192008600E0938900E0938800E0938B00E0936F
:1001A2008A00E093B600E093B000E093B100E093E0
:1001B200B200E093B300E093B400E1E0E0936E009C
:1001C200E0E0E0936F00E0937000E0936900EDBB24
:1001D200E0936800E093C100E093C900E0E8E0BF6B
:1001E200E0E0E0937B00E0937F00E0937A00ECBDD7
:1001F200E093BC007894FFCFFFCFBB27ECE3F0E0A5
:1002020019D030970895F195E195F04008950024B2
:10021200112490E1AA0FBB1F001C111C0E1A1F0A09
:1002220018F40E0E1F1E01C0A1609A9599F7FD01E8
:10023200D0010895E894B7FF04C0B195A195B040EC
:100242006894F7FDE0DFE3DFFD010EF4DCDF0895E3
:00000001FF
