:0A0000000C9447000C9400000C94CF
:10000A0000000C9400000C9400000C9400000C9466
:10001A0000000C9400000C9400000C9400000C9456
:10002A0000000C9400000C9400000C9400000C9446
:10003A0000000C9400000C9400000C9400000C9436
:10004A0076000C9400000C9400000C9400000C94B0
:10005A0000000C9400000C9400000C9400000C9416
:10006A0000000C9400000C9400000C9400000C9406
:10007A000000000000000001000000000A00030068
:10008A007C000000F894EE27EFBBF1E0F5BFE5BF76
:10009A008DE0A2E0BB27ED938A95E9F780E094E032
:1000AA00A0E0B1E0ED930197E9F7E6E8F0E0859189
:1000BA009591009761F0A591B59105901590BF01B2
:1000CA00F00105900D920197E1F7FB01F0CFE0E016
:1000DA00EEBBEFEFEDBFE4E0EEBFC0E0D2E00C9480
:1000EA000C010A921A929A93AA93BA93EA93FA93F0
:1000FA00EFB7EA93E3E6E6BD3394A32DBB27E9E124
:10010A00F0E030D1309711F463943324A62DEED069
:10011A0011F453946624A52DE9D011F4839455243F
:10012A00E82DF0E0E050FE4F4082A82DBB27E8E121
:10013A00F0E018D1309711F4E1E08E2EE991EFBF8B
:10014A00F991E991B991A991999119900990189504
:10015A001A93E3B1E07C1E2F110F110FE12FA2E0D9
:10016A00E6D01E2F11C01A93F3DF1E2F1E3F11F483
:10017A00EEEF09C01D3F11F4EDEF05C01B3F11F46E
:10018A00EBEF01C0EFEFE5B919910895C2D0AA20AB
:10019A00F1F410E0E8E0E81550F4E82DE8500E2FED
:1001AA00302F831618F0A8D03F5FFBCF0DC0E8E0D0
:1001BA00AAD0393118F4A0D03F5FFBCF31E08316C3
:1001CA0018F09AD03F5FFBCFE12F7E2E1DC010E0C2
:1001DA00E4E0E81550F4E82DE4500E2F302F831692
:1001EA0018F08AD03F5FFBCF0DC0E4E08CD03931E4
:1001FA0018F482D03F5FFBCF31E0831618F07CD031
:10020A003F5FFBCFE12F7E2E89D024960895E0E848
:10021A00E0936100E0E0E0936100E1B9E2B9EFEF59
:10022A00E4B9E5B9E0E0E7B9E8B9EAB9EDEEEBB966
:10023A00E0E0E4BDE5E0E5BDECE3E6BDE0E0E7BD16
:10024A00E8BDE0938000E0938100E0938500E093AD
:10025A008400E0938700E0938600E0938900E093AE
:10026A008800E0938B00E0938A00E093B600E09365
:10027A00B000E093B100E093B200E093B300E093E2
:10028A00B400E1E0E0936E00E0E0E0936F00E093F9
:10029A007000E0936900EDBBE0936800E093C10051
:1002AA00E093C900E0E8E0BFE0E0E0937B00E09380
:1002BA007F00E0937A00ECBDE093BC007894E0E024
:1002CA003099E1E09E2EE0E03199E1E0BE2E4BDF6D
:1002DA00992041F4CC24E1E0E91521F0BB2009F48E
:1002EA00C394F9CF4C2C52DFF2CFFFCFBB27ECE3FC
:1002FA00F0E038D030970895E32FF0E0E050FE4F59
:10030A00E0811E0F0895E8190E2FE8E1E01B3E2F49
:10031A0008953A932A931A930A9308953B812A815E
:10032A00198108810895F195E195F0400895EE2329
:10033A000E2EEA2F19F0E6950A94E9F7089500249B
:10034A00112490E1AA0FBB1F001C111C0E1A1F0AD0
:10035A0018F40E0E1F1E01C0A1609A9599F7FD01AF
:10036A00D0010895E894B7FF04C0B195A195B040B3
:10037A006894F7FDD8DFE3DFFD010EF4D4DF0895BA
:00000001FF
