:040000000C94470015
:100004000C9400000C9400000C9400000C9400006C
:100014000C9400000C9400000C9400000C9400005C
:100024000C9400000C9400000C9400000C9400004C
:100034000C9400000C9400000C9400000C9400003C
:100044000C9400000C9476000C9400000C940000B6
:100054000C9400000C9400000C9400000C9400001C
:100064000C9400000C9400000C9400000C9400000C
:100074000C9400000C94000000000000000100003B
:100084000000090003007C000000F894EE27EFBB99
:10009400F1E0F5BFE5BF8DE0A2E0BB27ED938A95C3
:1000A400E9F780E094E0A0E0B1E0ED930197E9F78F
:1000B400E6E8F0E085919591009761F0A591B591FE
:1000C40005901590BF01F00105900D920197E1F79D
:1000D400FB01F0CFE0E0EEBBEFEFEDBFE4E0EEBFFD
:1000E400C0E0D2E00C9414010A921A929A93AA9353
:1000F400BA93EA93FA93EFB7EA93E3E6E6BD33944F
:10010400A32DBB27E9E1F0E02DD1309711F46394DE
:100114003324A62DEFD011F453946624A52DEAD0F0
:1001240011F483945524E82DF0E0E050FE4F408212
:10013400A82DBB27E8E1F0E015D1309711F4E1E0F8
:100144008E2EE991EFBFF991E991B991A991999115
:100154001990099018951A93E3B1EF731E2F110F9C
:10016400110FE12FA2E0E3D01E2F25C01A93F3DF75
:100174001E2F113011F4E1E01DC0123011F4E2E041
:1001840019C0123011F4E4E015C0143011F4E8E0A1
:1001940011C0183011F4E0E10DC0103111F4E0E2A7
:1001A40009C0103211F4E0E405C0133011F4E0E8A2
:1001B40001C0E0E0E5B919910895ABD0772061F46E
:1001C40000E010E021E0293118F49AD02F5FFBCF32
:1001D400F8019E2EAF2E23C000E010E0ECE0E815FD
:1001E40050F4E82DEC503E2F232F821618F088D0BF
:1001F4002F5FFBCF14C0ECE0E8193E2FE8E1E31BCE
:100204002E2F293118F47CD02F5FFBCF21E08216EA
:1002140018F076D02F5FFBCFF8019E2EAF2E7ED044
:1002240024960895E0E8E0936100E0E0E093610043
:10023400E1B9E2B9EFEFE4B9E5B9E0E0E7B9E8B96B
:10024400EAB9EDEEEBB9E0E0E4BDE5E0E5BDECE3F1
:10025400E6BDE0E0E7BDE8BDE0938000E093810007
:10026400E0938500E0938400E0938700E0938600A8
:10027400E0938900E0938800E0938B00E0938A0088
:10028400E093B600E093B000E093B100E093B200D5
:10029400E093B300E093B400E1E0E0936E00E0E0AB
:1002A400E0936F00E0937000E0936900EDBBE0938E
:1002B4006800E093C100E093C900E0E8E0BFE0E03B
:1002C400E0937B00E0937F00E0937A00ECBDE09341
:1002D400BC0078944BDFE1E0EC1541F4BB24CC2066
:1002E40029F0E1E0EE1509F4B394F9CF4B2C65DF66
:1002F400F1CFFFCFBB27ECE3F0E034D03097089583
:10030400E22FF0E0E050FE4FE081F0E00E0F1F1FFF
:1003140008953A932A931A930A9308953B812A8164
:10032400198108810895F195E195F0400895EE232F
:100334000E2EEA2F19F0E6950A94E9F708950024A1
:10034400112490E1AA0FBB1F001C111C0E1A1F0AD6
:1003540018F40E0E1F1E01C0A1609A9599F7FD01B5
:10036400D0010895E894B7FF04C0B195A195B040B9
:100374006894F7FDD8DFE3DFFD010EF4D4DF0895C0
:00000001FF
